{
  "contractName": "Auth",
  "abi": [
    {
      "constant": true,
      "inputs": [
        {
          "name": "",
          "type": "uint256"
        }
      ],
      "name": "tree",
      "outputs": [
        {
          "name": "RootHash",
          "type": "bytes32"
        }
      ],
      "payable": false,
      "stateMutability": "view",
      "type": "function"
    },
    {
      "constant": true,
      "inputs": [],
      "name": "owner",
      "outputs": [
        {
          "name": "",
          "type": "address"
        }
      ],
      "payable": false,
      "stateMutability": "view",
      "type": "function"
    },
    {
      "constant": true,
      "inputs": [],
      "name": "TreeNumber",
      "outputs": [
        {
          "name": "",
          "type": "uint256"
        }
      ],
      "payable": false,
      "stateMutability": "view",
      "type": "function"
    },
    {
      "constant": true,
      "inputs": [
        {
          "name": "hash",
          "type": "bytes32"
        },
        {
          "name": "v",
          "type": "uint8"
        },
        {
          "name": "r",
          "type": "bytes32"
        },
        {
          "name": "s",
          "type": "bytes32"
        }
      ],
      "name": "verify",
      "outputs": [
        {
          "name": "retAddr",
          "type": "address"
        }
      ],
      "payable": false,
      "stateMutability": "pure",
      "type": "function"
    },
    {
      "constant": false,
      "inputs": [
        {
          "name": "_roothash",
          "type": "bytes32"
        }
      ],
      "name": "setTree",
      "outputs": [
        {
          "name": "",
          "type": "uint256"
        }
      ],
      "payable": false,
      "stateMutability": "nonpayable",
      "type": "function"
    },
    {
      "constant": true,
      "inputs": [
        {
          "name": "idx",
          "type": "uint256"
        },
        {
          "name": "slice",
          "type": "bytes32[]"
        }
      ],
      "name": "sliceRootHash",
      "outputs": [
        {
          "name": "",
          "type": "bool"
        }
      ],
      "payable": false,
      "stateMutability": "pure",
      "type": "function"
    }
  ],
  "bytecode": "0x608060405260008054600160a060020a03191633179055610521806100256000396000f3006080604052600436106100775763ffffffff7c0100000000000000000000000000000000000000000000000000000000600035041663024cd19b811461007c57806331352936146100ea578063658b6ff9146101145780638da5cb5b1461012c578063b55b5cc01461016a578063f1835db71461017f575b600080fd5b34801561008857600080fd5b506040805160206004602480358281013584810280870186019097528086526100d6968435963696604495919490910192918291850190849080828437509497506101a39650505050505050565b604080519115158252519081900360200190f35b3480156100f657600080fd5b50610102600435610327565b60408051918252519081900360200190f35b34801561012057600080fd5b50610102600435610339565b34801561013857600080fd5b50610141610391565b6040805173ffffffffffffffffffffffffffffffffffffffff9092168252519081900360200190f35b34801561017657600080fd5b506101026103ad565b34801561018b57600080fd5b5061014160043560ff602435166044356064356103b3565b600080600080600080865111151561021c57604080517f08c379a000000000000000000000000000000000000000000000000000000000815260206004820152601060248201527f736c6963652e6c656e677468203d203000000000000000000000000000000000604482015290519081900360640190fd5b50508351859150600090600019015b600181111561031d57600283049250856001820381518110151561024b57fe5b90602001906020020151868281518110151561026357fe5b6020908102909101810151604080518084019490945283810191909152805180840382018152606090930190819052825190918291908401908083835b602083106102bf5780518252601f1990920191602091820191016102a0565b6001836020036101000a03801982511681845116808217855250505050505090500191505060405180910390209350610312866001850381518110151561030257fe5b9060200190602002015185610420565b91506002900461022b565b5095945050505050565b60016020526000908152604090205481565b6000805473ffffffffffffffffffffffffffffffffffffffff16331461035e57600080fd5b50604080516020818101835283825260028054600181810183556000918252909252929020905190555460001901919050565b60005473ffffffffffffffffffffffffffffffffffffffff1681565b60025481565b604080516000808252602080830180855288905260ff87168385015260608301869052608083018590529251909260019260a080820193601f198101928190039091019086865af115801561040c573d6000803e3d6000fd5b5050604051601f1901519695505050505050565b6000805b60208110156104e95783816020811061043957fe5b1a7f0100000000000000000000000000000000000000000000000000000000000000027effffffffffffffffffffffffffffffffffffffffffffffffffffffffffffff1916838260208110151561048c57fe5b1a7f0100000000000000000000000000000000000000000000000000000000000000027effffffffffffffffffffffffffffffffffffffffffffffffffffffffffffff19161415156104e157600091506104ee565b600101610424565b600191505b50929150505600a165627a7a72305820dd6da075291da9333605711984bfc29693a0ef6e164d8b3b1e4a80dd1d4cc3700029",
  "source": "pragma solidity ^0.4.22;\nimport './Ownable.sol';\ncontract Auth is Ownable {\n    mapping(uint256=>Tree) public tree;\n    uint256 public TreeNumber;\n    struct Tree {\n        bytes32 RootHash;\n    }\n    function verify(bytes32 hash, uint8 v, bytes32 r, bytes32 s) public pure returns(address retAddr) {\n        retAddr= ecrecover(hash, v, r, s);\n        return retAddr;\n    }\n    function setTree(bytes32 _roothash) public onlyOwner returns(uint256)  {\n        tree[TreeNumber++]=Tree(_roothash);\n        return TreeNumber-1;\n    }\n    function sliceRootHash(uint idx,bytes32[] slice) public pure returns(bool) {\n        require(slice.length > 0, \"slice.length = 0\");\n        bytes32 temp;\n        uint index=idx;\n        bool b=false;\n        for(uint i=slice.length-1;i>1;i=i/2) {\n            index=index/2;\n            temp=keccak256(abi.encodePacked(slice[i-1],slice[i]));\n            b=compareByte(slice[index-1],temp);\n        }\n        return b;\n    } \n    \n    function compareByte(bytes32 _h,bytes32 _s) internal pure returns(bool){\n        for(uint i=0;i<32;i++){\n            if(_s[i]!=_h[i]){\n                 return false;\n            }\n        }\n        return true;\n    }\n    function strConcat(string _a,string _b) internal pure returns (string) {\n        bytes memory bytes_a = bytes(_a);\n        bytes memory bytes_b = bytes(_b);\n        string memory length_ab = new string(bytes_a.length + bytes_b.length);\n        bytes memory bytes_c = bytes(length_ab);\n        uint k = 0;\n        for (uint i = 0; i < bytes_a.length; i++) {bytes_c[k++] = bytes_a[i];}\n        for (i = 0; i < bytes_b.length; i++) {bytes_c[k++] = bytes_b[i];}\n        return string(bytes_c);\n    }\n    function bytes32ToString(bytes32 x) internal pure returns (string) {\n        bytes memory bytesString = new bytes(32);\n        uint charCount = 0;\n        for (uint j = 0; j < 32; j++) {\n            byte char = byte(bytes32(uint(x) * 2 ** (8 * j)));\n            if (char != 0) {\n                bytesString[charCount] = char;\n                charCount++;\n            }\n        }\n        bytes memory bytesStringTrimmed = new bytes(charCount);\n        for (j = 0; j < charCount; j++) {\n            bytesStringTrimmed[j] = bytesString[j];\n        }\n        return string(bytesStringTrimmed);\n    }\n    function stringToBytes32(string memory source) internal pure returns (bytes32 result) {\n        bytes memory tempEmptyStringTest = bytes(source);\n        if (tempEmptyStringTest.length == 0) {\n            return 0x0;\n        }\n        assembly {\n            result := mload(add(source, 32))\n        }\n    }\n}",
  "sourcePath": "/Users/tony/blockchain/project/ledgerbooster/contracts/Auth.sol",
  "compiler": {
    "name": "solc",
    "version": "0.4.24+commit.e67f0147.Emscripten.clang"
  },
  "schemaVersion": "2.0.1",
  "updatedAt": "2018-11-21T14:00:16.167Z"
}