{
  "contractName": "Auth",
  "abi": [
    {
      "constant": true,
      "inputs": [],
      "name": "treeNumber",
      "outputs": [
        {
          "name": "",
          "type": "uint256"
        }
      ],
      "payable": false,
      "stateMutability": "view",
      "type": "function"
    },
    {
      "constant": true,
      "inputs": [
        {
          "name": "",
          "type": "uint256"
        }
      ],
      "name": "clearanceRecords",
      "outputs": [
        {
          "name": "rootHash",
          "type": "bytes32"
        }
      ],
      "payable": false,
      "stateMutability": "view",
      "type": "function"
    },
    {
      "constant": true,
      "inputs": [],
      "name": "owner",
      "outputs": [
        {
          "name": "",
          "type": "address"
        }
      ],
      "payable": false,
      "stateMutability": "view",
      "type": "function"
    },
    {
      "anonymous": false,
      "inputs": [
        {
          "indexed": false,
          "name": "tx",
          "type": "bytes32"
        },
        {
          "indexed": false,
          "name": "signature",
          "type": "address"
        }
      ],
      "name": "lostTx",
      "type": "event"
    },
    {
      "constant": true,
      "inputs": [
        {
          "name": "hash",
          "type": "bytes32"
        },
        {
          "name": "v",
          "type": "uint8"
        },
        {
          "name": "r",
          "type": "bytes32"
        },
        {
          "name": "s",
          "type": "bytes32"
        }
      ],
      "name": "verifySignature",
      "outputs": [
        {
          "name": "retAddr",
          "type": "address"
        }
      ],
      "payable": false,
      "stateMutability": "pure",
      "type": "function"
    },
    {
      "constant": false,
      "inputs": [
        {
          "name": "_rootHash",
          "type": "bytes32"
        }
      ],
      "name": "writeClearanceRecords",
      "outputs": [
        {
          "name": "",
          "type": "uint256"
        }
      ],
      "payable": false,
      "stateMutability": "nonpayable",
      "type": "function"
    },
    {
      "constant": true,
      "inputs": [
        {
          "name": "idx",
          "type": "uint256"
        },
        {
          "name": "slice",
          "type": "bytes32[]"
        }
      ],
      "name": "sliceRootHash",
      "outputs": [
        {
          "name": "",
          "type": "bool"
        }
      ],
      "payable": false,
      "stateMutability": "pure",
      "type": "function"
    },
    {
      "constant": false,
      "inputs": [
        {
          "name": "_tx",
          "type": "bytes32"
        },
        {
          "name": "v",
          "type": "uint8"
        },
        {
          "name": "r",
          "type": "bytes32"
        },
        {
          "name": "s",
          "type": "bytes32"
        }
      ],
      "name": "lostTransaction",
      "outputs": [],
      "payable": false,
      "stateMutability": "nonpayable",
      "type": "function"
    }
  ],
  "bytecode": "0x608060405260008054600160a060020a03191633179055610642806100256000396000f3006080604052600436106100825763ffffffff7c0100000000000000000000000000000000000000000000000000000000600035041663024cd19b811461008757806366503315146100f55780636b30ad231461011c5780637d24a89d146101345780638da5cb5b1461014c578063969578691461018a578063c29d6a7a146101ae575b600080fd5b34801561009357600080fd5b506040805160206004602480358281013584810280870186019097528086526100e1968435963696604495919490910192918291850190849080828437509497506101d49650505050505050565b604080519115158252519081900360200190f35b34801561010157600080fd5b5061010a610358565b60408051918252519081900360200190f35b34801561012857600080fd5b5061010a60043561035e565b34801561014057600080fd5b5061010a600435610370565b34801561015857600080fd5b506101616103c8565b6040805173ffffffffffffffffffffffffffffffffffffffff9092168252519081900360200190f35b34801561019657600080fd5b5061016160043560ff602435166044356064356103e4565b3480156101ba57600080fd5b506101d260043560ff60243516604435606435610451565b005b600080600080600080865111151561024d57604080517f08c379a000000000000000000000000000000000000000000000000000000000815260206004820152601060248201527f736c6963652e6c656e677468203d203000000000000000000000000000000000604482015290519081900360640190fd5b50508351859150600090600019015b600181111561034e57600283049250856001820381518110151561027c57fe5b90602001906020020151868281518110151561029457fe5b6020908102909101810151604080518084019490945283810191909152805180840382018152606090930190819052825190918291908401908083835b602083106102f05780518252601f1990920191602091820191016102d1565b6001836020036101000a03801982511681845116808217855250505050505090500191505060405180910390209350610343866001850381518110151561033357fe5b9060200190602002015185610541565b91506002900461025c565b5095945050505050565b60025481565b60016020526000908152604090205481565b6000805473ffffffffffffffffffffffffffffffffffffffff16331461039557600080fd5b50604080516020818101835283825260028054600181810183556000918252909252929020905190555460001901919050565b60005473ffffffffffffffffffffffffffffffffffffffff1681565b604080516000808252602080830180855288905260ff87168385015260608301869052608083018590529251909260019260a080820193601f198101928190039091019086865af115801561043d573d6000803e3d6000fd5b5050604051601f1901519695505050505050565b336000610460868686866103e4565b905073ffffffffffffffffffffffffffffffffffffffff828116908216146104e957604080517f08c379a000000000000000000000000000000000000000000000000000000000815260206004820152601260248201527f7369676e61747572652069732077726f6e670000000000000000000000000000604482015290519081900360640190fd5b6040805187815273ffffffffffffffffffffffffffffffffffffffff8316602082015281517f2404264c3202763e8c2d4679f09d587364ef7c02f6d94b650c89a6c44e075eea929181900390910190a1505050505050565b6000805b602081101561060a5783816020811061055a57fe5b1a7f0100000000000000000000000000000000000000000000000000000000000000027effffffffffffffffffffffffffffffffffffffffffffffffffffffffffffff191683826020811015156105ad57fe5b1a7f0100000000000000000000000000000000000000000000000000000000000000027effffffffffffffffffffffffffffffffffffffffffffffffffffffffffffff1916141515610602576000915061060f565b600101610545565b600191505b50929150505600a165627a7a72305820d417731a97765871dfb0d41d7e50f191debc01ce67cd4c3a12a63e6ed20347ab0029",
  "source": "pragma solidity ^0.4.24;\r\nimport \"./Ownable.sol\";\r\n\r\ncontract Auth is Ownable {\r\n    event lostTx(bytes32 tx,address signature);\r\n    mapping(uint256=>treeRecord) public clearanceRecords;\r\n    uint256 public treeNumber;\r\n    struct treeRecord {\r\n        bytes32 rootHash;\r\n    }\r\n    function verifySignature(bytes32 hash, uint8 v, bytes32 r, bytes32 s) public pure returns(address retAddr) {\r\n        retAddr = ecrecover(hash, v, r, s);\r\n        return retAddr;\r\n    }\r\n    function writeClearanceRecords(bytes32 _rootHash) public onlyOwner returns(uint256)  {\r\n        clearanceRecords[treeNumber++] = treeRecord(_rootHash);\r\n        return treeNumber-1;\r\n    }\r\n    function sliceRootHash(uint idx,bytes32[] slice) public pure returns(bool) {\r\n        require(slice.length > 0, \"slice.length = 0\");\r\n        bytes32 temp;\r\n        uint index = idx;\r\n        bool b = false;\r\n        for(uint i = slice.length-1;i>1;i = i/2) {\r\n            index = index/2;\r\n            temp = keccak256(abi.encodePacked(slice[i-1],slice[i]));\r\n            b = compareByte(slice[index-1],temp);\r\n        }\r\n        return b;\r\n    } \r\n    function lostTransaction(bytes32 _tx,uint8 v,bytes32 r,bytes32 s) public {\r\n        address sender = msg.sender;\r\n        address signature = verifySignature(_tx,v,r,s);\r\n        require(sender==signature,\"signature is wrong\");\r\n        emit lostTx(_tx,signature);\r\n    }\r\n    function compareByte(bytes32 _h,bytes32 _s) internal pure returns(bool){\r\n        for(uint i = 0;i<32;i++){\r\n            if(_s[i]!=_h[i]){\r\n                return false;\r\n            }\r\n        }\r\n        return true;\r\n    }\r\n    \r\n    function strConcat(string _a,string _b) internal pure returns (string) {\r\n        bytes memory bytes_a = bytes(_a);\r\n        bytes memory bytes_b = bytes(_b);\r\n        string memory length_ab = new string(bytes_a.length + bytes_b.length);\r\n        bytes memory bytes_c = bytes(length_ab);\r\n        uint k = 0;\r\n        for (uint i = 0; i < bytes_a.length; i++) {bytes_c[k++] = bytes_a[i];}\r\n        for (i = 0; i < bytes_b.length; i++) {bytes_c[k++] = bytes_b[i];}\r\n        return string(bytes_c);\r\n    }\r\n    function bytes32ToString(bytes32 x) internal pure returns (string) {\r\n        bytes memory bytesString = new bytes(32);\r\n        uint charCount = 0;\r\n        for (uint j = 0; j < 32; j++) {\r\n            byte char = byte(bytes32(uint(x) * 2 ** (8 * j)));\r\n            if (char != 0) {\r\n                bytesString[charCount] = char;\r\n                charCount++;\r\n            }\r\n        }\r\n        bytes memory bytesStringTrimmed = new bytes(charCount);\r\n        for (j = 0; j < charCount; j++) {\r\n            bytesStringTrimmed[j] = bytesString[j];\r\n        }\r\n        return string(bytesStringTrimmed);\r\n    }\r\n    function stringToBytes32(string memory source) internal pure returns (bytes32 result) {\r\n        bytes memory tempEmptyStringTest = bytes(source);\r\n        if (tempEmptyStringTest.length == 0) {\r\n            return 0x0;\r\n        }\r\n        assembly {\r\n            result := mload(add(source, 32))\r\n        }\r\n    }\r\n  \r\n}",
  "sourcePath": "C:\\Users\\user\\Desktop\\blockchain\\ledgerbooster\\contracts\\Auth.sol",
  "compiler": {
    "name": "solc",
    "version": "0.4.24+commit.e67f0147.Emscripten.clang"
  },
  "schemaVersion": "2.0.1",
  "updatedAt": "2018-11-24T09:45:21.021Z"
}