{
  "contractName": "Auth",
  "abi": [
    {
      "constant": true,
      "inputs": [],
      "name": "treeNumber",
      "outputs": [
        {
          "name": "",
          "type": "uint256"
        }
      ],
      "payable": false,
      "stateMutability": "view",
      "type": "function"
    },
    {
      "constant": true,
      "inputs": [
        {
          "name": "",
          "type": "uint256"
        }
      ],
      "name": "clearanceRecords",
      "outputs": [
        {
          "name": "rootHash",
          "type": "bytes32"
        }
      ],
      "payable": false,
      "stateMutability": "view",
      "type": "function"
    },
    {
      "constant": true,
      "inputs": [],
      "name": "owner",
      "outputs": [
        {
          "name": "",
          "type": "address"
        }
      ],
      "payable": false,
      "stateMutability": "view",
      "type": "function"
    },
    {
      "constant": true,
      "inputs": [],
      "name": "lostTxTrue",
      "outputs": [
        {
          "name": "",
          "type": "bool"
        }
      ],
      "payable": false,
      "stateMutability": "view",
      "type": "function"
    },
    {
      "anonymous": false,
      "inputs": [
        {
          "indexed": false,
          "name": "rootHash",
          "type": "bytes32"
        },
        {
          "indexed": false,
          "name": "currentBlock",
          "type": "uint256"
        }
      ],
      "name": "lostTx",
      "type": "event"
    },
    {
      "constant": true,
      "inputs": [
        {
          "name": "hash",
          "type": "bytes32"
        },
        {
          "name": "v",
          "type": "uint8"
        },
        {
          "name": "r",
          "type": "bytes32"
        },
        {
          "name": "s",
          "type": "bytes32"
        }
      ],
      "name": "verifySignature",
      "outputs": [
        {
          "name": "retAddr",
          "type": "address"
        }
      ],
      "payable": false,
      "stateMutability": "pure",
      "type": "function"
    },
    {
      "constant": false,
      "inputs": [
        {
          "name": "_rootHash",
          "type": "bytes32"
        }
      ],
      "name": "writeClearanceRecords",
      "outputs": [
        {
          "name": "",
          "type": "uint256"
        }
      ],
      "payable": false,
      "stateMutability": "nonpayable",
      "type": "function"
    },
    {
      "constant": true,
      "inputs": [
        {
          "name": "idx",
          "type": "uint256"
        },
        {
          "name": "slice",
          "type": "bytes32[]"
        }
      ],
      "name": "sliceRootHash",
      "outputs": [
        {
          "name": "",
          "type": "bool"
        }
      ],
      "payable": false,
      "stateMutability": "pure",
      "type": "function"
    },
    {
      "constant": false,
      "inputs": [
        {
          "name": "_rootHash",
          "type": "bytes32"
        },
        {
          "name": "_treeNumber",
          "type": "uint256"
        },
        {
          "name": "_tx",
          "type": "bytes32"
        },
        {
          "name": "v",
          "type": "uint8"
        },
        {
          "name": "r",
          "type": "bytes32"
        },
        {
          "name": "s",
          "type": "bytes32"
        }
      ],
      "name": "lostTransaction",
      "outputs": [
        {
          "name": "",
          "type": "bool"
        }
      ],
      "payable": false,
      "stateMutability": "nonpayable",
      "type": "function"
    }
  ],
  "bytecode": "0x608060405260008054600160a060020a031916331790556106b1806100256000396000f30060806040526004361061008d5763ffffffff7c0100000000000000000000000000000000000000000000000000000000600035041663024cd19b81146100925780633fbc64ad14610100578063665033151461012a5780636b30ad23146101515780637d24a89d146101695780638da5cb5b1461018157806396957869146101bf578063b3af7f1a146101e3575b600080fd5b34801561009e57600080fd5b506040805160206004602480358281013584810280870186019097528086526100ec968435963696604495919490910192918291850190849080828437509497506101f89650505050505050565b604080519115158252519081900360200190f35b34801561010c57600080fd5b506100ec60043560243560443560ff6064351660843560a43561037c565b34801561013657600080fd5b5061013f610496565b60408051918252519081900360200190f35b34801561015d57600080fd5b5061013f60043561049c565b34801561017557600080fd5b5061013f6004356104ae565b34801561018d57600080fd5b50610196610506565b6040805173ffffffffffffffffffffffffffffffffffffffff9092168252519081900360200190f35b3480156101cb57600080fd5b5061019660043560ff60243516604435606435610522565b3480156101ef57600080fd5b506100ec61058f565b600080600080600080865111151561027157604080517f08c379a000000000000000000000000000000000000000000000000000000000815260206004820152601060248201527f736c6963652e6c656e677468203d203000000000000000000000000000000000604482015290519081900360640190fd5b50508351859150600090600019015b60018111156103725760028304925085600182038151811015156102a057fe5b9060200190602002015186828151811015156102b857fe5b6020908102909101810151604080518084019490945283810191909152805180840382018152606090930190819052825190918291908401908083835b602083106103145780518252601f1990920191602091820191016102f5565b6001836020036101000a03801982511681845116808217855250505050505090500191505060405180910390209350610367866001850381518110151561035757fe5b90602001906020020151856105b0565b915060029004610280565b5095945050505050565b60003381808061038e89898989610522565b925073ffffffffffffffffffffffffffffffffffffffff848116908416146103d5576000805474ff0000000000000000000000000000000000000000191681559450610488565b60008a81526001602052604090205491508a8214610412576000805474ff0000000000000000000000000000000000000000191681559450610488565b50604080518b81524360208201819052825190927f09ee0b8553997f3e86f76e26fa33568413de6ece6c380840c816f84e7adaa95d928290030190a16000805474ff0000000000000000000000000000000000000000191674010000000000000000000000000000000000000000179055600194505b505050509695505050505050565b60025481565b60016020526000908152604090205481565b6000805473ffffffffffffffffffffffffffffffffffffffff1633146104d357600080fd5b50604080516020818101835283825260028054600181810183556000918252909252929020905190555460001901919050565b60005473ffffffffffffffffffffffffffffffffffffffff1681565b604080516000808252602080830180855288905260ff87168385015260608301869052608083018590529251909260019260a080820193601f198101928190039091019086865af115801561057b573d6000803e3d6000fd5b5050604051601f1901519695505050505050565b60005474010000000000000000000000000000000000000000900460ff1681565b6000805b6020811015610679578381602081106105c957fe5b1a7f0100000000000000000000000000000000000000000000000000000000000000027effffffffffffffffffffffffffffffffffffffffffffffffffffffffffffff1916838260208110151561061c57fe5b1a7f0100000000000000000000000000000000000000000000000000000000000000027effffffffffffffffffffffffffffffffffffffffffffffffffffffffffffff1916141515610671576000915061067e565b6001016105b4565b600191505b50929150505600a165627a7a7230582089e1ded57f1312aeaaea28875952b3a42a6003d9c48b069923a81a3f151cecb40029",
  "source": "pragma solidity ^0.4.24;\r\nimport \"./Ownable.sol\";\r\n\r\ncontract Auth is Ownable {\r\n    event lostTx(bytes32 rootHash,uint currentBlock);\r\n    bool public lostTxTrue;\r\n    mapping(uint256=>treeRecord) public clearanceRecords;\r\n    uint256 public treeNumber;\r\n    struct treeRecord {\r\n        bytes32 rootHash;\r\n    }\r\n    function verifySignature(bytes32 hash, uint8 v, bytes32 r, bytes32 s) public pure returns(address retAddr) {\r\n        retAddr = ecrecover(hash, v, r, s);\r\n        return retAddr;\r\n    }\r\n    function writeClearanceRecords(bytes32 _rootHash) public onlyOwner returns(uint256)  {\r\n        clearanceRecords[treeNumber++] = treeRecord(_rootHash);\r\n        return treeNumber-1;\r\n    }\r\n    function sliceRootHash(uint idx,bytes32[] slice) public pure returns(bool) {\r\n        require(slice.length > 0, \"slice.length = 0\");\r\n        bytes32 temp;\r\n        uint index = idx;\r\n        bool b = false;\r\n        for(uint i = slice.length-1;i>1;i = i/2) {\r\n            index = index/2;\r\n            temp = keccak256(abi.encodePacked(slice[i-1],slice[i]));\r\n            b = compareByte(slice[index-1],temp);\r\n        }\r\n        return b;\r\n    } \r\n    function lostTransaction(bytes32 _rootHash,uint _treeNumber,bytes32 _tx,uint8 v,bytes32 r,bytes32 s) public returns(bool) {\r\n        address sender = msg.sender;\r\n        address signature = verifySignature(_tx,v,r,s);\r\n        if(sender!=signature){\r\n            lostTxTrue=false;\r\n            return false;\r\n        }\r\n        bytes32 treeHash=clearanceRecords[_treeNumber].rootHash;\r\n        if(_rootHash!=treeHash){\r\n            lostTxTrue=false;\r\n            return false;\r\n        }\r\n        uint currentBlock=block.number;\r\n        emit lostTx(_rootHash,currentBlock);\r\n         lostTxTrue=true;\r\n        return true;\r\n    }\r\n \r\n    function compareByte(bytes32 _h,bytes32 _s) internal pure returns(bool){\r\n        for(uint i = 0;i<32;i++){\r\n            if(_s[i]!=_h[i]){\r\n                return false;\r\n            }\r\n        }\r\n        return true;\r\n    }\r\n    function strConcat(string _a,string _b) internal pure returns (string) {\r\n        bytes memory bytes_a = bytes(_a);\r\n        bytes memory bytes_b = bytes(_b);\r\n        string memory length_ab = new string(bytes_a.length + bytes_b.length);\r\n        bytes memory bytes_c = bytes(length_ab);\r\n        uint k = 0;\r\n        for (uint i = 0; i < bytes_a.length; i++) {bytes_c[k++] = bytes_a[i];}\r\n        for (i = 0; i < bytes_b.length; i++) {bytes_c[k++] = bytes_b[i];}\r\n        return string(bytes_c);\r\n    }\r\n    function bytes32ToString(bytes32 x) internal pure returns (string) {\r\n        bytes memory bytesString = new bytes(32);\r\n        uint charCount = 0;\r\n        for (uint j = 0; j < 32; j++) {\r\n            byte char = byte(bytes32(uint(x) * 2 ** (8 * j)));\r\n            if (char != 0) {\r\n                bytesString[charCount] = char;\r\n                charCount++;\r\n            }\r\n        }\r\n        bytes memory bytesStringTrimmed = new bytes(charCount);\r\n        for (j = 0; j < charCount; j++) {\r\n            bytesStringTrimmed[j] = bytesString[j];\r\n        }\r\n        return string(bytesStringTrimmed);\r\n    }\r\n    function stringToBytes32(string memory source) internal pure returns (bytes32 result) {\r\n        bytes memory tempEmptyStringTest = bytes(source);\r\n        if (tempEmptyStringTest.length == 0) {\r\n            return 0x0;\r\n        }\r\n        assembly {\r\n            result := mload(add(source, 32))\r\n        }\r\n    }\r\n  \r\n}",
  "sourcePath": "C:\\Users\\user\\Desktop\\blockchain\\ledgerbooster\\contracts\\Auth.sol",
  "compiler": {
    "name": "solc",
    "version": "0.4.24+commit.e67f0147.Emscripten.clang"
  },
  "schemaVersion": "2.0.1",
  "updatedAt": "2018-11-26T11:23:03.745Z"
}