{
  "contractName": "Auth",
  "abi": [
    {
      "constant": true,
      "inputs": [
        {
          "name": "",
          "type": "uint256"
        }
      ],
      "name": "tree",
      "outputs": [
        {
          "name": "RootHash",
          "type": "bytes32"
        }
      ],
      "payable": false,
      "stateMutability": "view",
      "type": "function"
    },
    {
      "constant": true,
      "inputs": [],
      "name": "owner",
      "outputs": [
        {
          "name": "",
          "type": "address"
        }
      ],
      "payable": false,
      "stateMutability": "view",
      "type": "function"
    },
    {
      "constant": true,
      "inputs": [],
      "name": "TreeNumber",
      "outputs": [
        {
          "name": "",
          "type": "uint256"
        }
      ],
      "payable": false,
      "stateMutability": "view",
      "type": "function"
    },
    {
      "constant": true,
      "inputs": [
        {
          "name": "hash",
          "type": "bytes32"
        },
        {
          "name": "v",
          "type": "uint8"
        },
        {
          "name": "r",
          "type": "bytes32"
        },
        {
          "name": "s",
          "type": "bytes32"
        }
      ],
      "name": "verify",
      "outputs": [
        {
          "name": "retAddr",
          "type": "address"
        }
      ],
      "payable": false,
      "stateMutability": "pure",
      "type": "function"
    },
    {
      "constant": false,
      "inputs": [
        {
          "name": "_roothash",
          "type": "bytes32"
        }
      ],
      "name": "setTree",
      "outputs": [
        {
          "name": "",
          "type": "uint256"
        }
      ],
      "payable": false,
      "stateMutability": "nonpayable",
      "type": "function"
    },
    {
      "constant": true,
      "inputs": [
        {
          "name": "idx",
          "type": "uint256"
        },
        {
          "name": "slice",
          "type": "bytes32[]"
        }
      ],
      "name": "sliceRootHash",
      "outputs": [
        {
          "name": "",
          "type": "bool"
        }
      ],
      "payable": false,
      "stateMutability": "pure",
      "type": "function"
    }
  ],
  "bytecode": "0x608060405260008054600160a060020a03191633179055610521806100256000396000f3006080604052600436106100775763ffffffff7c0100000000000000000000000000000000000000000000000000000000600035041663024cd19b811461007c57806331352936146100ea578063658b6ff9146101145780638da5cb5b1461012c578063b55b5cc01461016a578063f1835db71461017f575b600080fd5b34801561008857600080fd5b506040805160206004602480358281013584810280870186019097528086526100d6968435963696604495919490910192918291850190849080828437509497506101a39650505050505050565b604080519115158252519081900360200190f35b3480156100f657600080fd5b50610102600435610327565b60408051918252519081900360200190f35b34801561012057600080fd5b50610102600435610339565b34801561013857600080fd5b50610141610391565b6040805173ffffffffffffffffffffffffffffffffffffffff9092168252519081900360200190f35b34801561017657600080fd5b506101026103ad565b34801561018b57600080fd5b5061014160043560ff602435166044356064356103b3565b600080600080600080865111151561021c57604080517f08c379a000000000000000000000000000000000000000000000000000000000815260206004820152601060248201527f736c6963652e6c656e677468203d203000000000000000000000000000000000604482015290519081900360640190fd5b50508351859150600090600019015b600181111561031d57600283049250856001820381518110151561024b57fe5b90602001906020020151868281518110151561026357fe5b6020908102909101810151604080518084019490945283810191909152805180840382018152606090930190819052825190918291908401908083835b602083106102bf5780518252601f1990920191602091820191016102a0565b6001836020036101000a03801982511681845116808217855250505050505090500191505060405180910390209350610312866001850381518110151561030257fe5b9060200190602002015185610420565b91506002900461022b565b5095945050505050565b60016020526000908152604090205481565b6000805473ffffffffffffffffffffffffffffffffffffffff16331461035e57600080fd5b50604080516020818101835283825260028054600181810183556000918252909252929020905190555460001901919050565b60005473ffffffffffffffffffffffffffffffffffffffff1681565b60025481565b604080516000808252602080830180855288905260ff87168385015260608301869052608083018590529251909260019260a080820193601f198101928190039091019086865af115801561040c573d6000803e3d6000fd5b5050604051601f1901519695505050505050565b6000805b60208110156104e95783816020811061043957fe5b1a7f0100000000000000000000000000000000000000000000000000000000000000027effffffffffffffffffffffffffffffffffffffffffffffffffffffffffffff1916838260208110151561048c57fe5b1a7f0100000000000000000000000000000000000000000000000000000000000000027effffffffffffffffffffffffffffffffffffffffffffffffffffffffffffff19161415156104e157600091506104ee565b600101610424565b600191505b50929150505600a165627a7a72305820c266daf29959c7228406a6bab5252473c87716bc446026e61b298a5bba1857b10029",
  "source": "pragma solidity ^0.4.22;\r\nimport './Ownable.sol';\r\ncontract Auth is Ownable {\r\n    mapping(uint256=>Tree) public tree;\r\n    uint256 public TreeNumber;\r\n    struct Tree {\r\n        bytes32 RootHash;\r\n    }\r\n    function verify(bytes32 hash, uint8 v, bytes32 r, bytes32 s) public pure returns(address retAddr) {\r\n        retAddr= ecrecover(hash, v, r, s);\r\n        return retAddr;\r\n    }\r\n    function setTree(bytes32 _roothash) public onlyOwner returns(uint256)  {\r\n        tree[TreeNumber++]=Tree(_roothash);\r\n        return TreeNumber-1;\r\n    }\r\n    function sliceRootHash(uint idx,bytes32[] slice) public pure returns(bool) {\r\n        require(slice.length > 0, \"slice.length = 0\");\r\n        bytes32 temp;\r\n        uint index=idx;\r\n        bool b=false;\r\n        for(uint i=slice.length-1;i>1;i=i/2) {\r\n            index=index/2;\r\n            temp=keccak256(abi.encodePacked(slice[i-1],slice[i]));\r\n            b=compareByte(slice[index-1],temp);\r\n        }\r\n        return b;\r\n    } \r\n    \r\n    function compareByte(bytes32 _h,bytes32 _s) internal pure returns(bool){\r\n        for(uint i=0;i<32;i++){\r\n            if(_s[i]!=_h[i]){\r\n                 return false;\r\n            }\r\n        }\r\n        return true;\r\n    }\r\n    function strConcat(string _a,string _b) internal pure returns (string) {\r\n        bytes memory bytes_a = bytes(_a);\r\n        bytes memory bytes_b = bytes(_b);\r\n        string memory length_ab = new string(bytes_a.length + bytes_b.length);\r\n        bytes memory bytes_c = bytes(length_ab);\r\n        uint k = 0;\r\n        for (uint i = 0; i < bytes_a.length; i++) {bytes_c[k++] = bytes_a[i];}\r\n        for (i = 0; i < bytes_b.length; i++) {bytes_c[k++] = bytes_b[i];}\r\n        return string(bytes_c);\r\n    }\r\n    function bytes32ToString(bytes32 x) internal pure returns (string) {\r\n        bytes memory bytesString = new bytes(32);\r\n        uint charCount = 0;\r\n        for (uint j = 0; j < 32; j++) {\r\n            byte char = byte(bytes32(uint(x) * 2 ** (8 * j)));\r\n            if (char != 0) {\r\n                bytesString[charCount] = char;\r\n                charCount++;\r\n            }\r\n        }\r\n        bytes memory bytesStringTrimmed = new bytes(charCount);\r\n        for (j = 0; j < charCount; j++) {\r\n            bytesStringTrimmed[j] = bytesString[j];\r\n        }\r\n        return string(bytesStringTrimmed);\r\n    }\r\n    function stringToBytes32(string memory source) internal pure returns (bytes32 result) {\r\n        bytes memory tempEmptyStringTest = bytes(source);\r\n        if (tempEmptyStringTest.length == 0) {\r\n            return 0x0;\r\n        }\r\n        assembly {\r\n            result := mload(add(source, 32))\r\n        }\r\n    }\r\n}",
  "sourcePath": "C:\\Users\\user\\Desktop\\blockchain\\project\\contracts\\Auth.sol",
  "compiler": {
    "name": "solc",
    "version": "0.4.24+commit.e67f0147.Emscripten.clang"
  },
  "schemaVersion": "2.0.1",
  "updatedAt": "2018-11-21T12:23:35.016Z"
}