{
  "contractName": "Auth",
  "abi": [
    {
      "constant": true,
      "inputs": [],
      "name": "treeNumber",
      "outputs": [
        {
          "name": "",
          "type": "uint256"
        }
      ],
      "payable": false,
      "stateMutability": "view",
      "type": "function"
    },
    {
      "constant": true,
      "inputs": [
        {
          "name": "",
          "type": "uint256"
        }
      ],
      "name": "clearanceRecords",
      "outputs": [
        {
          "name": "rootHash",
          "type": "bytes32"
        }
      ],
      "payable": false,
      "stateMutability": "view",
      "type": "function"
    },
    {
      "constant": true,
      "inputs": [
        {
          "name": "",
          "type": "address"
        }
      ],
      "name": "challenge",
      "outputs": [
        {
          "name": "client",
          "type": "address"
        },
        {
          "name": "challengedState",
          "type": "bool"
        },
        {
          "name": "currentBlock",
          "type": "uint256"
        },
        {
          "name": "treeNumber",
          "type": "uint256"
        }
      ],
      "payable": false,
      "stateMutability": "view",
      "type": "function"
    },
    {
      "constant": true,
      "inputs": [],
      "name": "owner",
      "outputs": [
        {
          "name": "",
          "type": "address"
        }
      ],
      "payable": false,
      "stateMutability": "view",
      "type": "function"
    },
    {
      "anonymous": false,
      "inputs": [
        {
          "indexed": false,
          "name": "client",
          "type": "address"
        },
        {
          "indexed": false,
          "name": "currentBlock",
          "type": "uint256"
        }
      ],
      "name": "lostTx",
      "type": "event"
    },
    {
      "constant": true,
      "inputs": [
        {
          "name": "hash",
          "type": "bytes32"
        },
        {
          "name": "v",
          "type": "uint8"
        },
        {
          "name": "r",
          "type": "bytes32"
        },
        {
          "name": "s",
          "type": "bytes32"
        }
      ],
      "name": "verifySignature",
      "outputs": [
        {
          "name": "retAddr",
          "type": "address"
        }
      ],
      "payable": false,
      "stateMutability": "pure",
      "type": "function"
    },
    {
      "constant": false,
      "inputs": [
        {
          "name": "_rootHash",
          "type": "bytes32"
        }
      ],
      "name": "writeClearanceRecords",
      "outputs": [
        {
          "name": "",
          "type": "uint256"
        }
      ],
      "payable": false,
      "stateMutability": "nonpayable",
      "type": "function"
    },
    {
      "constant": true,
      "inputs": [
        {
          "name": "idx",
          "type": "uint256"
        },
        {
          "name": "slice",
          "type": "bytes32[]"
        }
      ],
      "name": "sliceRootHash",
      "outputs": [
        {
          "name": "",
          "type": "bool"
        }
      ],
      "payable": false,
      "stateMutability": "pure",
      "type": "function"
    },
    {
      "constant": false,
      "inputs": [
        {
          "name": "_rootHash",
          "type": "bytes32"
        },
        {
          "name": "_treeNumber",
          "type": "uint256"
        },
        {
          "name": "_tx",
          "type": "bytes32"
        },
        {
          "name": "v",
          "type": "uint8"
        },
        {
          "name": "r",
          "type": "bytes32"
        },
        {
          "name": "s",
          "type": "bytes32"
        }
      ],
      "name": "lostTransaction",
      "outputs": [
        {
          "name": "",
          "type": "bool"
        }
      ],
      "payable": false,
      "stateMutability": "nonpayable",
      "type": "function"
    },
    {
      "constant": true,
      "inputs": [
        {
          "name": "addr",
          "type": "address"
        }
      ],
      "name": "spProof",
      "outputs": [],
      "payable": false,
      "stateMutability": "view",
      "type": "function"
    },
    {
      "constant": true,
      "inputs": [],
      "name": "propose",
      "outputs": [
        {
          "name": "",
          "type": "bool"
        }
      ],
      "payable": false,
      "stateMutability": "view",
      "type": "function"
    }
  ],
  "bytecode": "0x608060405260008054600160a060020a03191633179055610986806100256000396000f3006080604052600436106100a35763ffffffff7c0100000000000000000000000000000000000000000000000000000000600035041663024cd19b81146100a85780632a53ff07146101165780633fbc64ad1461013957806366503315146101635780636b30ad231461018a57806372fb9703146101a25780637d24a89d146101f35780638da5cb5b1461020b578063969578691461023c578063c198f8ba14610260575b600080fd5b3480156100b457600080fd5b50604080516020600460248035828101358481028087018601909752808652610102968435963696604495919490910192918291850190849080828437509497506102759650505050505050565b604080519115158252519081900360200190f35b34801561012257600080fd5b50610137600160a060020a03600435166103f9565b005b34801561014557600080fd5b5061010260043560243560443560ff6064351660843560a435610413565b34801561016f57600080fd5b506101786105b7565b60408051918252519081900360200190f35b34801561019657600080fd5b506101786004356105bd565b3480156101ae57600080fd5b506101c3600160a060020a03600435166105cf565b60408051600160a060020a0390951685529215156020850152838301919091526060830152519081900360800190f35b3480156101ff57600080fd5b50610178600435610617565b34801561021757600080fd5b50610220610663565b60408051600160a060020a039092168252519081900360200190f35b34801561024857600080fd5b5061022060043560ff60243516604435606435610672565b34801561026c57600080fd5b506101026106df565b60008060008060008086511115156102ee57604080517f08c379a000000000000000000000000000000000000000000000000000000000815260206004820152601060248201527f736c6963652e6c656e677468203d203000000000000000000000000000000000604482015290519081900360640190fd5b50508351859150600090600019015b60018111156103ef57600283049250856001820381518110151561031d57fe5b90602001906020020151868281518110151561033557fe5b6020908102909101810151604080518084019490945283810191909152805180840382018152606090930190819052825190918291908401908083835b602083106103915780518252601f199092019160209182019101610372565b6001836020036101000a038019825116818451168082178552505050505050905001915050604051809103902093506103e486600185038151811015156103d457fe5b906020019060200201518561082b565b9150600290046102fd565b5095945050505050565b600054600160a060020a0316331461041057600080fd5b50565b60003381808061042589898989610672565b9250600160a060020a038481169084161461044357600094506105a9565b60008a81526002602052604090205491508a821461046457600094506105a9565b43905060a06040519081016040528085600160a060020a0316815260200160011515815260200182815260200160408051908101604052808e600019166000191681526020018c600019166000191681525081526020018b8152506001600086600160a060020a0316600160a060020a0316815260200190815260200160002060008201518160000160006101000a815481600160a060020a030219169083600160a060020a0316021790555060208201518160000160146101000a81548160ff02191690831515021790555060408201518160010155606082015181600201906002610552929190610900565b506080919091015160049091015560408051600160a060020a03861681526020810183905281517fc2bf77981b420d23feebe8e29f228fbd8effe648d7f53bc286eff90706859ed7929181900390910190a1600194505b505050509695505050505050565b60035481565b60026020526000908152604090205481565b6001602081905260009182526040909120805491810154600490910154600160a060020a0383169274010000000000000000000000000000000000000000900460ff16919084565b60008054600160a060020a0316331461062f57600080fd5b5060408051602081810183528382526003805460018101825560009081526002909252929020905190555460001901919050565b600054600160a060020a031681565b604080516000808252602080830180855288905260ff87168385015260608301869052608083018590529251909260019260a080820193601f198101928190039091019086865af11580156106cb573d6000803e3d6000fd5b5050604051601f1901519695505050505050565b33600090815260016020819052604082205474010000000000000000000000000000000000000000900460ff161515146107a057604080517f08c379a000000000000000000000000000000000000000000000000000000000815260206004820152602d60248201527f6368616c6c656e67656453746174652069732077726f6e67206f72206164646460448201527f726573732069732077726f6e6700000000000000000000000000000000000000606482015290519081900360840190fd5b3360009081526001602081905260409091200154603243011161082457604080517f08c379a000000000000000000000000000000000000000000000000000000000815260206004820152601760248201527f6368616c6c656e6765206973206e6f742066696e697368000000000000000000604482015290519081900360640190fd5b5060015b90565b6000805b60208110156108f45783816020811061084457fe5b1a7f0100000000000000000000000000000000000000000000000000000000000000027effffffffffffffffffffffffffffffffffffffffffffffffffffffffffffff1916838260208110151561089757fe5b1a7f0100000000000000000000000000000000000000000000000000000000000000027effffffffffffffffffffffffffffffffffffffffffffffffffffffffffffff19161415156108ec57600091506108f9565b60010161082f565b600191505b5092915050565b8260028101928215610930579160200282015b828111156109305782518255602090920191600190910190610913565b5061093c929150610940565b5090565b61082891905b8082111561093c57600081556001016109465600a165627a7a72305820ca67d1068e297345ce6b23d1bb6003ab1af8fdf1e635eea2e040ec55aba6aac70029",
  "source": "pragma solidity ^0.4.24;\r\nimport \"./Ownable.sol\";\r\n\r\ncontract Auth is Ownable {\r\n    event lostTx(address client,uint currentBlock);\r\n    mapping(address=> challengedInfo) public challenge;\r\n    mapping(uint256=>treeRecord) public clearanceRecords;\r\n    uint256 public treeNumber;\r\n    struct treeRecord {\r\n        bytes32 rootHash;\r\n    }\r\n    struct challengedInfo{\r\n        address client;\r\n        bool challengedState; \r\n        uint256 currentBlock;\r\n        bytes32[2] hash;//0:rootHash 1:Tx\r\n        uint256 treeNumber;\r\n    }\r\n    function verifySignature(bytes32 hash, uint8 v, bytes32 r, bytes32 s) public pure returns(address retAddr) {\r\n        retAddr = ecrecover(hash, v, r, s);\r\n        return retAddr;\r\n    }\r\n    function writeClearanceRecords(bytes32 _rootHash) public onlyOwner returns(uint256)  {\r\n        clearanceRecords[treeNumber++] = treeRecord(_rootHash);\r\n        return treeNumber-1;\r\n    }\r\n    function sliceRootHash(uint idx,bytes32[] slice) public pure returns(bool) {\r\n        require(slice.length > 0, \"slice.length = 0\");\r\n        bytes32 temp;\r\n        uint index = idx;\r\n        bool b = false;\r\n        for(uint i = slice.length-1;i>1;i = i/2) {\r\n            index = index/2;\r\n            temp = keccak256(abi.encodePacked(slice[i-1],slice[i]));\r\n            b = compareByte(slice[index-1],temp);\r\n        }\r\n        return b;\r\n    } \r\n    function lostTransaction(bytes32 _rootHash,uint _treeNumber,bytes32 _tx,uint8 v,bytes32 r,bytes32 s) public returns(bool) {\r\n        address sender = msg.sender;\r\n        address signature = verifySignature(_tx,v,r,s);\r\n        if(sender!=signature){\r\n            return false;\r\n        }\r\n        bytes32 treeHash=clearanceRecords[_treeNumber].rootHash;\r\n        if(_rootHash!=treeHash){\r\n            return false;\r\n        }\r\n        uint currentBlock=block.number;\r\n        challenge[sender]=challengedInfo(sender,true,currentBlock,[_rootHash,_tx],_treeNumber);\r\n        emit lostTx(sender,currentBlock);\r\n        return true;\r\n    }\r\n    function spProof(address addr) public view onlyOwner{\r\n        //not finish;\r\n    }\r\n    function propose() public view returns(bool){\r\n        require(challenge[msg.sender].challengedState==true,\"challengedState is wrong or adddress is wrong\");\r\n        require(challenge[msg.sender].currentBlock<(block.number+50),\"challenge is not finish\");\r\n        return true;\r\n    }\r\n    \r\n    function compareByte(bytes32 _h,bytes32 _s) internal pure returns(bool){\r\n        for(uint i = 0;i<32;i++){\r\n            if(_s[i]!=_h[i]){\r\n                return false;\r\n            }\r\n        }\r\n        return true;\r\n    }\r\n    function strConcat(string _a,string _b) internal pure returns (string) {\r\n        bytes memory bytes_a = bytes(_a);\r\n        bytes memory bytes_b = bytes(_b);\r\n        string memory length_ab = new string(bytes_a.length + bytes_b.length);\r\n        bytes memory bytes_c = bytes(length_ab);\r\n        uint k = 0;\r\n        for (uint i = 0; i < bytes_a.length; i++) {bytes_c[k++] = bytes_a[i];}\r\n        for (i = 0; i < bytes_b.length; i++) {bytes_c[k++] = bytes_b[i];}\r\n        return string(bytes_c);\r\n    }\r\n    function bytes32ToString(bytes32 x) internal pure returns (string) {\r\n        bytes memory bytesString = new bytes(32);\r\n        uint charCount = 0;\r\n        for (uint j = 0; j < 32; j++) {\r\n            byte char = byte(bytes32(uint(x) * 2 ** (8 * j)));\r\n            if (char != 0) {\r\n                bytesString[charCount] = char;\r\n                charCount++;\r\n            }\r\n        }\r\n        bytes memory bytesStringTrimmed = new bytes(charCount);\r\n        for (j = 0; j < charCount; j++) {\r\n            bytesStringTrimmed[j] = bytesString[j];\r\n        }\r\n        return string(bytesStringTrimmed);\r\n    }\r\n    function stringToBytes32(string memory source) internal pure returns (bytes32 result) {\r\n        bytes memory tempEmptyStringTest = bytes(source);\r\n        if (tempEmptyStringTest.length == 0) {\r\n            return 0x0;\r\n        }\r\n        assembly {\r\n            result := mload(add(source, 32))\r\n        }\r\n    }\r\n  \r\n}",
  "sourcePath": "C:\\Users\\user\\Desktop\\blockchain\\ledgerbooster\\contracts\\Auth.sol",
  "compiler": {
    "name": "solc",
    "version": "0.4.24+commit.e67f0147.Emscripten.clang"
  },
  "schemaVersion": "2.0.1",
  "updatedAt": "2018-11-26T13:25:11.838Z"
}