{
  "contractName": "LedgerBooster",
  "abi": [
    {
      "constant": true,
      "inputs": [
        {
          "name": "",
          "type": "address"
        }
      ],
      "name": "challengeLog",
      "outputs": [
        {
          "name": "client",
          "type": "address"
        },
        {
          "name": "challengedState",
          "type": "bool"
        },
        {
          "name": "currentBlock",
          "type": "uint256"
        },
        {
          "name": "treeNumber",
          "type": "uint256"
        }
      ],
      "payable": false,
      "stateMutability": "view",
      "type": "function"
    },
    {
      "constant": true,
      "inputs": [],
      "name": "treeNumber",
      "outputs": [
        {
          "name": "",
          "type": "uint256"
        }
      ],
      "payable": false,
      "stateMutability": "view",
      "type": "function"
    },
    {
      "constant": true,
      "inputs": [
        {
          "name": "",
          "type": "uint256"
        }
      ],
      "name": "clearanceRecords",
      "outputs": [
        {
          "name": "rootHash",
          "type": "bytes32"
        },
        {
          "name": "treeNumber",
          "type": "uint256"
        },
        {
          "name": "classification",
          "type": "uint256"
        }
      ],
      "payable": false,
      "stateMutability": "view",
      "type": "function"
    },
    {
      "constant": true,
      "inputs": [],
      "name": "owner",
      "outputs": [
        {
          "name": "",
          "type": "address"
        }
      ],
      "payable": false,
      "stateMutability": "view",
      "type": "function"
    },
    {
      "anonymous": false,
      "inputs": [
        {
          "indexed": false,
          "name": "client",
          "type": "address"
        },
        {
          "indexed": false,
          "name": "currentBlock",
          "type": "uint256"
        }
      ],
      "name": "lostTx",
      "type": "event"
    },
    {
      "constant": false,
      "inputs": [
        {
          "name": "_rootHash",
          "type": "bytes32"
        },
        {
          "name": "classification",
          "type": "uint256"
        }
      ],
      "name": "writeClearanceRecords",
      "outputs": [],
      "payable": false,
      "stateMutability": "nonpayable",
      "type": "function"
    },
    {
      "constant": false,
      "inputs": [
        {
          "name": "_rootHash",
          "type": "bytes32"
        },
        {
          "name": "_treeNumber",
          "type": "uint256"
        },
        {
          "name": "pbPairs",
          "type": "bytes32"
        },
        {
          "name": "_tx",
          "type": "bytes32"
        },
        {
          "name": "v",
          "type": "uint8"
        },
        {
          "name": "r",
          "type": "bytes32"
        },
        {
          "name": "s",
          "type": "bytes32"
        }
      ],
      "name": "lostTransaction",
      "outputs": [],
      "payable": false,
      "stateMutability": "nonpayable",
      "type": "function"
    },
    {
      "constant": true,
      "inputs": [
        {
          "name": "addr",
          "type": "address"
        }
      ],
      "name": "spProof",
      "outputs": [],
      "payable": false,
      "stateMutability": "view",
      "type": "function"
    },
    {
      "constant": true,
      "inputs": [],
      "name": "propose",
      "outputs": [
        {
          "name": "",
          "type": "bool"
        }
      ],
      "payable": false,
      "stateMutability": "view",
      "type": "function"
    }
  ],
  "bytecode": "0x608060405260008054600160a060020a0319163317905561083a806100256000396000f30060806040526004361061008d5763ffffffff7c010000000000000000000000000000000000000000000000000000000060003504166329c3c48581146100925780632a53ff07146100e3578063401e64761461010657806366503315146101215780636b30ad2314610148578063861043591461017e5780638da5cb5b146101ab578063c198f8ba146101dc575b600080fd5b34801561009e57600080fd5b506100b3600160a060020a0360043516610205565b60408051600160a060020a0390951685529215156020850152838301919091526060830152519081900360800190f35b3480156100ef57600080fd5b50610104600160a060020a036004351661024d565b005b34801561011257600080fd5b50610104600435602435610267565b34801561012d57600080fd5b506101366102c5565b60408051918252519081900360200190f35b34801561015457600080fd5b506101606004356102cb565b60408051938452602084019290925282820152519081900360600190f35b34801561018a57600080fd5b5061010460043560243560443560643560ff6084351660a43560c4356102eb565b3480156101b757600080fd5b506101c0610687565b60408051600160a060020a039092168252519081900360200190f35b3480156101e857600080fd5b506101f1610696565b604080519115158252519081900360200190f35b6001602081905260009182526040909120805491810154600490910154600160a060020a0383169274010000000000000000000000000000000000000000900460ff16919084565b600054600160a060020a0316331461026457600080fd5b50565b600054600160a060020a0316331461027e57600080fd5b604080516060810182529283526003805460208086018281528685019586526001808401909455600092835260029182905293909120945185559151908401559051910155565b60035481565b600260208190526000918252604090912080546001820154919092015483565b604080517f969578690000000000000000000000000000000000000000000000000000000081526004810186905260ff85166024820152604481018490526064810183905290513391600091829173__Util__________________________________91639695786991608480820192602092909190829003018186803b15801561037557600080fd5b505af4158015610389573d6000803e3d6000fd5b505050506040513d602081101561039f57600080fd5b50519150600160a060020a038381169083161415610407576040805160e560020a62461bcd02815260206004820152601260248201527f7369676e6174757265206973206572726f720000000000000000000000000000604482015290519081900360640190fd5b6040805160208082018b905282518083038201815291830192839052815191929182918401908083835b602083106104505780518252601f199092019160209182019101610431565b5181516020939093036101000a600019018019909116921691909117905260405192018290039091208a141592506104d5915050576040805160e560020a62461bcd02815260206004820152600b60248201527f74782069732077726f6e67000000000000000000000000000000000000000000604482015290519081900360640190fd5b6000898152600260205260409020548a141561053b576040805160e560020a62461bcd02815260206004820152601160248201527f726f6f7468617368206973206572726f72000000000000000000000000000000604482015290519081900360640190fd5b43905060a06040519081016040528084600160a060020a0316815260200160011515815260200182815260200160408051908101604052808d600019166000191681526020018a600019166000191681525081526020018a8152506001600085600160a060020a0316600160a060020a0316815260200190815260200160002060008201518160000160006101000a815481600160a060020a030219169083600160a060020a0316021790555060208201518160000160146101000a81548160ff021916908315150217905550604082015181600101556060820151816002019060026106299291906107b4565b506080919091015160049091015560408051600160a060020a03851681526020810183905281517fc2bf77981b420d23feebe8e29f228fbd8effe648d7f53bc286eff90706859ed7929181900390910190a150505050505050505050565b600054600160a060020a031681565b33600090815260016020819052604082205474010000000000000000000000000000000000000000900460ff16151514610740576040805160e560020a62461bcd02815260206004820152602d60248201527f6368616c6c656e67656453746174652069732077726f6e67206f72206164646460448201527f726573732069732077726f6e6700000000000000000000000000000000000000606482015290519081900360840190fd5b336000908152600160208190526040909120015460324301116107ad576040805160e560020a62461bcd02815260206004820152601760248201527f6368616c6c656e6765206973206e6f742066696e697368000000000000000000604482015290519081900360640190fd5b5060015b90565b82600281019282156107e4579160200282015b828111156107e457825182556020909201916001909101906107c7565b506107f09291506107f4565b5090565b6107b191905b808211156107f057600081556001016107fa5600a165627a7a72305820c659d3983fbc2ef65f7c6b0cd60f9992a311995df69b1276a24473896555bea20029",
  "source": "pragma solidity ^0.4.24;\r\n\r\nimport \"./Ownable.sol\";\r\nimport \"./Util.sol\";\r\n\r\ncontract LedgerBooster is Ownable {\r\n    event lostTx(address client,uint currentBlock);\r\n    mapping(address=> Util.challengedInfo) public challengeLog;\r\n    mapping(uint256=> Util.treeRecord) public clearanceRecords;\r\n    uint256 public treeNumber;\r\n   \r\n    function writeClearanceRecords(bytes32 _rootHash,uint256 classification) public onlyOwner   {\r\n        clearanceRecords[treeNumber++] = Util.treeRecord(_rootHash,treeNumber,classification);\r\n    }\r\n    \r\n    function lostTransaction(bytes32 _rootHash,uint _treeNumber,bytes32 pbPairs,bytes32 _tx,uint8 v,bytes32 r,bytes32 s) public{\r\n        address sender = msg.sender;\r\n        address signature = Util.verifySignature(_tx,v,r,s);\r\n        require(sender!=signature,\"signature is error\");\r\n        require(_tx!=keccak256(abi.encodePacked(pbPairs)),\"tx is wrong\");\r\n        require(_rootHash!=clearanceRecords[_treeNumber].rootHash,\"roothash is error\");\r\n        uint currentBlock = block.number;\r\n        challengeLog[sender] = Util.challengedInfo(sender,true,currentBlock,[_rootHash,_tx],_treeNumber);\r\n        emit lostTx(sender,currentBlock);\r\n        \r\n    }\r\n    function spProof(address addr) public view onlyOwner{\r\n        //not finish;\r\n    }\r\n    function propose() public view returns(bool){\r\n        require(challengeLog[msg.sender].challengedState==true,\"challengedState is wrong or adddress is wrong\");\r\n        require(challengeLog[msg.sender].currentBlock<(block.number+50),\"challenge is not finish\");\r\n        return true;\r\n    }\r\n    \r\n    \r\n}\r\n",
  "sourcePath": "C:\\Users\\user\\Desktop\\blockchain\\ledgerbooster\\contracts\\LedgerBooster.sol",
  "compiler": {
    "name": "solc",
    "version": "0.4.24+commit.e67f0147.Emscripten.clang"
  },
  "schemaVersion": "2.0.1",
  "updatedAt": "2018-11-28T12:56:00.577Z"
}