{
  "contractName": "TestHash",
  "abi": [
    {
      "constant": true,
      "inputs": [
        {
          "name": "_str",
          "type": "string"
        }
      ],
      "name": "getKeccak",
      "outputs": [
        {
          "name": "",
          "type": "bytes32"
        }
      ],
      "payable": false,
      "stateMutability": "pure",
      "type": "function"
    },
    {
      "constant": true,
      "inputs": [
        {
          "name": "_b",
          "type": "bytes32"
        }
      ],
      "name": "getKeccak",
      "outputs": [
        {
          "name": "",
          "type": "bytes32"
        }
      ],
      "payable": false,
      "stateMutability": "pure",
      "type": "function"
    },
    {
      "constant": true,
      "inputs": [
        {
          "name": "_a",
          "type": "bytes32"
        },
        {
          "name": "_b",
          "type": "bytes32"
        }
      ],
      "name": "getKeccak2",
      "outputs": [
        {
          "name": "",
          "type": "bytes32"
        }
      ],
      "payable": false,
      "stateMutability": "pure",
      "type": "function"
    },
    {
      "constant": true,
      "inputs": [
        {
          "name": "_a",
          "type": "string"
        },
        {
          "name": "_b",
          "type": "string"
        }
      ],
      "name": "getKeccak2",
      "outputs": [
        {
          "name": "",
          "type": "bytes32"
        }
      ],
      "payable": false,
      "stateMutability": "pure",
      "type": "function"
    }
  ],
  "bytecode": "0x608060405234801561001057600080fd5b5061072f806100206000396000f3006080604052600436106100615763ffffffff7c01000000000000000000000000000000000000000000000000000000006000350416631a73470e81146100665780638a7941d014610093578063db79ddaf1461012a578063e98e8a6414610183575b600080fd5b34801561007257600080fd5b5061008160043560243561019b565b60408051918252519081900360200190f35b34801561009f57600080fd5b506040805160206004803580820135601f810184900484028501840190955284845261008194369492936024939284019190819084018382808284375050604080516020601f89358b018035918201839004830284018301909452808352979a9998810197919650918201945092508291508401838280828437509497506102519650505050505050565b34801561013657600080fd5b506040805160206004803580820135601f81018490048402850184019095528484526100819436949293602493928401919081908401838280828437509497506103669650505050505050565b34801561018f57600080fd5b50610081600435610430565b6000606080606060006101ad8761047a565b93506101b88661047a565b92506101c484846105c0565b91506101cf826106df565b604080516020808201849052825180830382018152918301928390528151939450909282918401908083835b6020831061021a5780518252601f1990920191602091820191016101fb565b5181516020939093036101000a600019018019909116921691909117905260405192018290039091209a9950505050505050505050565b600082826040516020018083805190602001908083835b602083106102875780518252601f199092019160209182019101610268565b51815160209384036101000a600019018019909216911617905285519190930192850191508083835b602083106102cf5780518252601f1990920191602091820191016102b0565b6001836020036101000a038019825116818451168082178552505050505050905001925050506040516020818303038152906040526040518082805190602001908083835b602083106103335780518252601f199092019160209182019101610314565b5181516020939093036101000a600019018019909116921691909117905260405192018290039091209695505050505050565b6000816040516020018082805190602001908083835b6020831061039b5780518252601f19909201916020918201910161037c565b6001836020036101000a0380198251168184511680821785525050505050509050019150506040516020818303038152906040526040518082805190602001908083835b602083106103fe5780518252601f1990920191602091820191016103df565b5181516020939093036101000a6000190180199091169216919091179052604051920182900390912095945050505050565b60408051602080820184905282518083038201815291830192839052815160009391829190840190808383602083106103fe5780518252601f1990920191602091820191016103df565b6040805160208082528183019092526060918291600091829182918591908082016104008038833901905050945060009350600092505b6020831015610526576008830260020a870291507fff0000000000000000000000000000000000000000000000000000000000000082161561051b578185858151811015156104fc57fe5b906020010190600160f860020a031916908160001a9053506001909301925b6001909201916104b1565b836040519080825280601f01601f191660200182016040528015610554578160200160208202803883390190505b509050600092505b838310156105b657848381518110151561057257fe5b90602001015160f860020a900460f860020a02818481518110151561059357fe5b906020010190600160f860020a031916908160001a90535060019092019161055c565b9695505050505050565b606080606080606060008088955087945084518651016040519080825280601f01601f191660200182016040528015610603578160200160208202803883390190505b50935083925060009150600090505b855181101561067057858181518110151561062957fe5b90602001015160f860020a900460f860020a02838380600101945081518110151561065057fe5b906020010190600160f860020a031916908160001a905350600101610612565b5060005b84518110156106d257848181518110151561068b57fe5b90602001015160f860020a900460f860020a0283838060010194508151811015156106b257fe5b906020010190600160f860020a031916908160001a905350600101610674565b5090979650505050505050565b8051600090829015156106f557600091506106fd565b602083015191505b509190505600a165627a7a7230582064e4e5c63df4cd75b1be417376fd00420c70f9c5b1611f6de8e91191b77f12c70029",
  "source": "pragma solidity ^0.4.24;\n\ncontract TestHash {\n  function getKeccak(string _str) public pure returns (bytes32){\n    return keccak256(abi.encodePacked(_str));\n  }\n  function getKeccak(bytes32 _b) public pure returns(bytes32){\n      return keccak256(abi.encodePacked(_b));\n  }\n  function getKeccak2(bytes32 _a,bytes32 _b) public pure returns(bytes32){\n      string memory a=bytes32ToString(_a);\n      string memory b=bytes32ToString(_b);\n      string memory c=strConcat(a,b);\n      bytes32 d=stringToBytes32(c);\n      return keccak256(abi.encodePacked(d));\n  }\n   function getKeccak2(string _a,string _b) public pure returns(bytes32){\n      return keccak256(abi.encodePacked(_a,_b));\n  }\n  function compareByte(bytes32 _h,bytes32 _s) internal pure returns(bool){\n        for(uint i = 0;i<32;i++){\n            if(_s[i]!=_h[i]){\n                return false;\n            }\n        }\n        return true;\n    }\n\n  function strConcat(string _a,string _b) internal pure returns (string) {\n        bytes memory bytes_a = bytes(_a);\n        bytes memory bytes_b = bytes(_b);\n        string memory length_ab = new string(bytes_a.length + bytes_b.length);\n        bytes memory bytes_c = bytes(length_ab);\n        uint k = 0;\n        for (uint i = 0; i < bytes_a.length; i++) {bytes_c[k++] = bytes_a[i];}\n        for (i = 0; i < bytes_b.length; i++) {bytes_c[k++] = bytes_b[i];}\n        return string(bytes_c);\n    }\n  function bytes32ToString(bytes32 x) internal pure returns (string) {\n        bytes memory bytesString = new bytes(32);\n        uint charCount = 0;\n        for (uint j = 0; j < 32; j++) {\n            byte char = byte(bytes32(uint(x) * 2 ** (8 * j)));\n            if (char != 0) {\n                bytesString[charCount] = char;\n                charCount++;\n            }\n        }\n        bytes memory bytesStringTrimmed = new bytes(charCount);\n        for (j = 0; j < charCount; j++) {\n            bytesStringTrimmed[j] = bytesString[j];\n        }\n        return string(bytesStringTrimmed);\n    }\n  function stringToBytes32(string memory source) internal pure returns (bytes32 result) {\n      bytes memory tempEmptyStringTest = bytes(source);\n      if (tempEmptyStringTest.length == 0) {\n          return 0x0;\n      }\n      assembly {\n          result := mload(add(source, 32))\n      }\n  }\n}\n",
  "sourcePath": "C:\\Users\\user\\Desktop\\blockchain\\ledgerbooster\\contracts\\TestHash.sol",
  "compiler": {
    "name": "solc",
    "version": "0.4.24+commit.e67f0147.Emscripten.clang"
  },
  "schemaVersion": "2.0.1",
  "updatedAt": "2018-11-24T07:54:21.875Z"
}