{
  "contractName": "Util",
  "abi": [
    {
      "constant": true,
      "inputs": [
        {
          "name": "hash",
          "type": "bytes32"
        },
        {
          "name": "v",
          "type": "uint8"
        },
        {
          "name": "r",
          "type": "bytes32"
        },
        {
          "name": "s",
          "type": "bytes32"
        }
      ],
      "name": "verifySignature",
      "outputs": [
        {
          "name": "retAddr",
          "type": "address"
        }
      ],
      "payable": false,
      "stateMutability": "pure",
      "type": "function"
    },
    {
      "constant": true,
      "inputs": [
        {
          "name": "idx",
          "type": "uint256"
        },
        {
          "name": "slice",
          "type": "bytes32[]"
        }
      ],
      "name": "sliceRootHash",
      "outputs": [
        {
          "name": "",
          "type": "bool"
        }
      ],
      "payable": false,
      "stateMutability": "pure",
      "type": "function"
    }
  ],
  "bytecode": "0x6103fa610030600b82828239805160001a6073146000811461002057610022565bfe5b5030600052607381538281f30073000000000000000000000000000000000000000030146080604052600436106100625763ffffffff7c0100000000000000000000000000000000000000000000000000000000600035041663024cd19b811461006757806396957869146100c8575b600080fd5b6040805160206004602480358281013584810280870186019097528086526100b4968435963696604495919490910192918291850190849080828437509497506101089650505050505050565b604080519115158252519081900360200190f35b6100df60043560ff6024351660443560643561028c565b6040805173ffffffffffffffffffffffffffffffffffffffff9092168252519081900360200190f35b600080600080600080865111151561018157604080517f08c379a000000000000000000000000000000000000000000000000000000000815260206004820152601060248201527f736c6963652e6c656e677468203d203000000000000000000000000000000000604482015290519081900360640190fd5b50508351859150600090600019015b60018111156102825760028304925085600182038151811015156101b057fe5b9060200190602002015186828151811015156101c857fe5b6020908102909101810151604080518084019490945283810191909152805180840382018152606090930190819052825190918291908401908083835b602083106102245780518252601f199092019160209182019101610205565b6001836020036101000a03801982511681845116808217855250505050505090500191505060405180910390209350610277866001850381518110151561026757fe5b90602001906020020151856102f9565b915060029004610190565b5095945050505050565b604080516000808252602080830180855288905260ff87168385015260608301869052608083018590529251909260019260a080820193601f198101928190039091019086865af11580156102e5573d6000803e3d6000fd5b5050604051601f1901519695505050505050565b6000805b60208110156103c25783816020811061031257fe5b1a7f0100000000000000000000000000000000000000000000000000000000000000027effffffffffffffffffffffffffffffffffffffffffffffffffffffffffffff1916838260208110151561036557fe5b1a7f0100000000000000000000000000000000000000000000000000000000000000027effffffffffffffffffffffffffffffffffffffffffffffffffffffffffffff19161415156103ba57600091506103c7565b6001016102fd565b600191505b50929150505600a165627a7a723058200589f1949a0552e9fe237922ed75f58ada1adb00ad5b430986b3bbca12d0f4220029",
  "source": "pragma solidity ^0.4.24;\r\n\r\nlibrary Util{\r\n    struct challengedInfo{\r\n        address client;\r\n        bool challengedState; \r\n        uint256 currentBlock;\r\n        bytes32[2] hash;//0:rootHash 1:Tx\r\n        uint256 treeNumber;\r\n    }\r\n    struct treeRecord {\r\n        bytes32 rootHash;\r\n        uint256 treeNumber;\r\n        uint256 classification;\r\n    }\r\n    function verifySignature(bytes32 hash, uint8 v, bytes32 r, bytes32 s) public pure returns(address retAddr) {\r\n        retAddr = ecrecover(hash, v, r, s);\r\n        return retAddr;\r\n    }\r\n    function sliceRootHash(uint idx,bytes32[] slice) public pure returns(bool) {\r\n        require(slice.length > 0, \"slice.length = 0\");\r\n        bytes32 temp;\r\n        uint index = idx;\r\n        bool b = false;\r\n        for(uint i = slice.length-1;i>1;i = i/2) {\r\n            index = index/2;\r\n            temp = keccak256(abi.encodePacked(slice[i-1],slice[i]));\r\n            b = compareByte(slice[index-1],temp);\r\n        }\r\n        return b;\r\n    } \r\n    function compareByte(bytes32 _h,bytes32 _s) internal pure returns(bool){\r\n        for(uint i = 0;i<32;i++){\r\n            if(_s[i]!=_h[i]){\r\n                return false;\r\n            }\r\n        }\r\n        return true;\r\n    }\r\n    function strConcat(string _a,string _b) internal pure returns (string) {\r\n        bytes memory bytes_a = bytes(_a);\r\n        bytes memory bytes_b = bytes(_b);\r\n        string memory length_ab = new string(bytes_a.length + bytes_b.length);\r\n        bytes memory bytes_c = bytes(length_ab);\r\n        uint k = 0;\r\n        for (uint i = 0; i < bytes_a.length; i++) {bytes_c[k++] = bytes_a[i];}\r\n        for (i = 0; i < bytes_b.length; i++) {bytes_c[k++] = bytes_b[i];}\r\n        return string(bytes_c);\r\n    }\r\n    function bytes32ToString(bytes32 x) internal pure returns (string) {\r\n        bytes memory bytesString = new bytes(32);\r\n        uint charCount = 0;\r\n        for (uint j = 0; j < 32; j++) {\r\n            byte char = byte(bytes32(uint(x) * 2 ** (8 * j)));\r\n            if (char != 0) {\r\n                bytesString[charCount] = char;\r\n                charCount++;\r\n            }\r\n        }\r\n        bytes memory bytesStringTrimmed = new bytes(charCount);\r\n        for (j = 0; j < charCount; j++) {\r\n            bytesStringTrimmed[j] = bytesString[j];\r\n        }\r\n        return string(bytesStringTrimmed);\r\n    }\r\n    function stringToBytes32(string memory source) internal pure returns (bytes32 result) {\r\n        bytes memory tempEmptyStringTest = bytes(source);\r\n        if (tempEmptyStringTest.length == 0) {\r\n            return 0x0;\r\n        }\r\n        assembly {\r\n            result := mload(add(source, 32))\r\n        }\r\n    }\r\n}",
  "sourcePath": "C:\\Users\\user\\Desktop\\blockchain\\ledgerbooster\\contracts\\Util.sol",
  "compiler": {
    "name": "solc",
    "version": "0.4.24+commit.e67f0147.Emscripten.clang"
  },
  "schemaVersion": "2.0.1",
  "updatedAt": "2018-11-28T12:56:00.574Z"
}